{
  "contractName": "Voting",
  "abi": [
    {
      "inputs": [],
      "payable": false,
      "stateMutability": "nonpayable",
      "type": "constructor",
      "signature": "constructor"
    },
    {
      "anonymous": false,
      "inputs": [
        {
          "indexed": false,
          "name": "candidateID",
          "type": "uint256"
        }
      ],
      "name": "AddedCandidate",
      "type": "event",
      "signature": "0xec542c373a064661ffef02d633752debf28f3e6c9f253680822d9ccf8b47aec6"
    },
    {
      "constant": false,
      "inputs": [
        {
          "name": "x",
          "type": "address"
        }
      ],
      "name": "toString",
      "outputs": [
        {
          "name": "",
          "type": "string"
        }
      ],
      "payable": false,
      "stateMutability": "nonpayable",
      "type": "function",
      "signature": "0x56ca623e"
    },
    {
      "constant": false,
      "inputs": [
        {
          "name": "file",
          "type": "string"
        },
        {
          "name": "desc",
          "type": "string"
        }
      ],
      "name": "addFile",
      "outputs": [],
      "payable": false,
      "stateMutability": "nonpayable",
      "type": "function",
      "signature": "0x248bfc3b"
    },
    {
      "constant": false,
      "inputs": [
        {
          "name": "name",
          "type": "bytes32"
        },
        {
          "name": "party",
          "type": "bytes32"
        },
        {
          "name": "img",
          "type": "string"
        }
      ],
      "name": "addCandidate",
      "outputs": [],
      "payable": false,
      "stateMutability": "nonpayable",
      "type": "function",
      "signature": "0x3e15cd33"
    },
    {
      "constant": false,
      "inputs": [
        {
          "name": "candidateID",
          "type": "uint256"
        }
      ],
      "name": "vote",
      "outputs": [],
      "payable": false,
      "stateMutability": "nonpayable",
      "type": "function",
      "signature": "0x0121b93f"
    },
    {
      "constant": true,
      "inputs": [],
      "name": "getWinner",
      "outputs": [
        {
          "name": "",
          "type": "bytes32"
        },
        {
          "name": "",
          "type": "bytes32"
        },
        {
          "name": "",
          "type": "string"
        },
        {
          "name": "",
          "type": "uint256"
        }
      ],
      "payable": false,
      "stateMutability": "view",
      "type": "function",
      "signature": "0x8e7ea5b2"
    },
    {
      "constant": true,
      "inputs": [],
      "name": "getNumOfCandidates",
      "outputs": [
        {
          "name": "",
          "type": "uint256"
        }
      ],
      "payable": false,
      "stateMutability": "view",
      "type": "function",
      "signature": "0xe8685ba1"
    },
    {
      "constant": true,
      "inputs": [],
      "name": "getNumOfVoters",
      "outputs": [
        {
          "name": "",
          "type": "uint256"
        }
      ],
      "payable": false,
      "stateMutability": "view",
      "type": "function",
      "signature": "0x65fc783c"
    },
    {
      "constant": true,
      "inputs": [],
      "name": "getNumOfFiles",
      "outputs": [
        {
          "name": "",
          "type": "uint256"
        }
      ],
      "payable": false,
      "stateMutability": "view",
      "type": "function",
      "signature": "0x61780d09"
    },
    {
      "constant": true,
      "inputs": [
        {
          "name": "candidateID",
          "type": "uint256"
        }
      ],
      "name": "getCandidate",
      "outputs": [
        {
          "name": "",
          "type": "uint256"
        },
        {
          "name": "",
          "type": "bytes32"
        },
        {
          "name": "",
          "type": "bytes32"
        },
        {
          "name": "",
          "type": "string"
        },
        {
          "name": "",
          "type": "uint256"
        }
      ],
      "payable": false,
      "stateMutability": "view",
      "type": "function",
      "signature": "0x35b8e820"
    },
    {
      "constant": true,
      "inputs": [
        {
          "name": "FileID",
          "type": "uint256"
        }
      ],
      "name": "getFile",
      "outputs": [
        {
          "name": "",
          "type": "uint256"
        },
        {
          "name": "",
          "type": "string"
        },
        {
          "name": "",
          "type": "string"
        },
        {
          "name": "",
          "type": "address"
        }
      ],
      "payable": false,
      "stateMutability": "view",
      "type": "function",
      "signature": "0x2bfda313"
    },
    {
      "constant": true,
      "inputs": [],
      "name": "getOwner",
      "outputs": [
        {
          "name": "",
          "type": "address"
        }
      ],
      "payable": false,
      "stateMutability": "view",
      "type": "function",
      "signature": "0x893d20e8"
    },
    {
      "constant": true,
      "inputs": [
        {
          "name": "account",
          "type": "address"
        }
      ],
      "name": "hasVoted",
      "outputs": [
        {
          "name": "",
          "type": "bool"
        }
      ],
      "payable": false,
      "stateMutability": "view",
      "type": "function",
      "signature": "0x09eef43e"
    }
  ],
  "bytecode": "0x608060405234801561001057600080fd5b50336000806101000a81548173ffffffffffffffffffffffffffffffffffffffff021916908373ffffffffffffffffffffffffffffffffffffffff160217905550611210806100606000396000f3fe6080604052600436106100ba576000357c0100000000000000000000000000000000000000000000000000000000900463ffffffff1680630121b93f146100bf57806309eef43e146100fa578063248bfc3b146101635780632bfda313146102c257806335b8e8201461041c5780633e15cd33146104ec57806356ca623e146105c857806361780d091461069257806365fc783c146106bd578063893d20e8146106e85780638e7ea5b21461073f578063e8685ba1146107e4575b600080fd5b3480156100cb57600080fd5b506100f8600480360360208110156100e257600080fd5b810190808035906020019092919050505061080f565b005b34801561010657600080fd5b506101496004803603602081101561011d57600080fd5b81019080803573ffffffffffffffffffffffffffffffffffffffff16906020019092919050505061091a565b604051808215151515815260200191505060405180910390f35b34801561016f57600080fd5b506102c06004803603604081101561018657600080fd5b81019080803590602001906401000000008111156101a357600080fd5b8201836020820111156101b557600080fd5b803590602001918460018302840111640100000000831117156101d757600080fd5b91908080601f016020809104026020016040519081016040528093929190818152602001838380828437600081840152601f19601f8201169050808301925050505050505091929192908035906020019064010000000081111561023a57600080fd5b82018360208201111561024c57600080fd5b8035906020019184600183028401116401000000008311171561026e57600080fd5b91908080601f016020809104026020016040519081016040528093929190818152602001838380828437600081840152601f19601f820116905080830192505050505050509192919290505050610970565b005b3480156102ce57600080fd5b506102fb600480360360208110156102e557600080fd5b8101908080359060200190929190505050610a53565b6040518085815260200180602001806020018473ffffffffffffffffffffffffffffffffffffffff1673ffffffffffffffffffffffffffffffffffffffff168152602001838103835286818151815260200191508051906020019080838360005b8381101561037757808201518184015260208101905061035c565b50505050905090810190601f1680156103a45780820380516001836020036101000a031916815260200191505b50838103825285818151815260200191508051906020019080838360005b838110156103dd5780820151818401526020810190506103c2565b50505050905090810190601f16801561040a5780820380516001836020036101000a031916815260200191505b50965050505050505060405180910390f35b34801561042857600080fd5b506104556004803603602081101561043f57600080fd5b8101908080359060200190929190505050610c05565b6040518086815260200185815260200184815260200180602001838152602001828103825284818151815260200191508051906020019080838360005b838110156104ad578082015181840152602081019050610492565b50505050905090810190601f1680156104da5780820380516001836020036101000a031916815260200191505b50965050505050505060405180910390f35b3480156104f857600080fd5b506105c66004803603606081101561050f57600080fd5b8101908080359060200190929190803590602001909291908035906020019064010000000081111561054057600080fd5b82018360208201111561055257600080fd5b8035906020019184600183028401116401000000008311171561057457600080fd5b91908080601f016020809104026020016040519081016040528093929190818152602001838380828437600081840152601f19601f820116905080830192505050505050509192919290505050610d19565b005b3480156105d457600080fd5b50610617600480360360208110156105eb57600080fd5b81019080803573ffffffffffffffffffffffffffffffffffffffff169060200190929190505050610e63565b6040518080602001828103825283818151815260200191508051906020019080838360005b8381101561065757808201518184015260208101905061063c565b50505050905090810190601f1680156106845780820380516001836020036101000a031916815260200191505b509250505060405180910390f35b34801561069e57600080fd5b506106a7610f4e565b6040518082815260200191505060405180910390f35b3480156106c957600080fd5b506106d2610f58565b6040518082815260200191505060405180910390f35b3480156106f457600080fd5b506106fd610f62565b604051808273ffffffffffffffffffffffffffffffffffffffff1673ffffffffffffffffffffffffffffffffffffffff16815260200191505060405180910390f35b34801561074b57600080fd5b50610754610f8b565b6040518085815260200184815260200180602001838152602001828103825284818151815260200191508051906020019080838360005b838110156107a657808201518184015260208101905061078b565b50505050905090810190601f1680156107d35780820380516001836020036101000a031916815260200191505b509550505050505060405180910390f35b3480156107f057600080fd5b506107f96110fd565b6040518082815260200191505060405180910390f35b600660003373ffffffffffffffffffffffffffffffffffffffff1673ffffffffffffffffffffffffffffffffffffffff16815260200190815260200160002060009054906101000a900460ff1615151561086857600080fd5b600115156005600083815260200190815260200160002060040160009054906101000a900460ff1615151415610917576001600660003373ffffffffffffffffffffffffffffffffffffffff1673ffffffffffffffffffffffffffffffffffffffff16815260200190815260200160002060006101000a81548160ff02191690831515021790555060056000828152602001908152602001600020600301600081548092919060010191905055505b50565b6000600660008373ffffffffffffffffffffffffffffffffffffffff1673ffffffffffffffffffffffffffffffffffffffff16815260200190815260200160002060009054906101000a900460ff169050919050565b6000600160008154809291906001019190505590506060604051908101604052808481526020018381526020013373ffffffffffffffffffffffffffffffffffffffff168152506004600083815260200190815260200160002060008201518160000190805190602001906109e6929190611107565b506020820151816001019080519060200190610a03929190611107565b5060408201518160020160006101000a81548173ffffffffffffffffffffffffffffffffffffffff021916908373ffffffffffffffffffffffffffffffffffffffff160217905550905050505050565b600060608060008460046000878152602001908152602001600020600001600460008881526020019081526020016000206001016004600089815260200190815260200160002060020160009054906101000a900473ffffffffffffffffffffffffffffffffffffffff16828054600181600116156101000203166002900480601f016020809104026020016040519081016040528092919081815260200182805460018160011615610100020316600290048015610b535780601f10610b2857610100808354040283529160200191610b53565b820191906000526020600020905b815481529060010190602001808311610b3657829003601f168201915b50505050509250818054600181600116156101000203166002900480601f016020809104026020016040519081016040528092919081815260200182805460018160011615610100020316600290048015610bef5780601f10610bc457610100808354040283529160200191610bef565b820191906000526020600020905b815481529060010190602001808311610bd257829003601f168201915b5050505050915093509350935093509193509193565b6000806000606060008560056000888152602001908152602001600020600001546005600089815260200190815260200160002060010154600560008a8152602001908152602001600020600201600560008b815260200190815260200160002060030154818054600181600116156101000203166002900480601f016020809104026020016040519081016040528092919081815260200182805460018160011615610100020316600290048015610cff5780601f10610cd457610100808354040283529160200191610cff565b820191906000526020600020905b815481529060010190602001808311610ce257829003601f168201915b505050505091509450945094509450945091939590929450565b6000809054906101000a900473ffffffffffffffffffffffffffffffffffffffff1673ffffffffffffffffffffffffffffffffffffffff163373ffffffffffffffffffffffffffffffffffffffff16141515610d7457600080fd5b60006002600081548092919060010191905055905060a06040519081016040528085815260200184815260200183815260200160008152602001600115158152506005600083815260200190815260200160002060008201518160000155602082015181600101556040820151816002019080519060200190610df8929190611107565b506060820151816003015560808201518160040160006101000a81548160ff0219169083151502179055509050507fec542c373a064661ffef02d633752debf28f3e6c9f253680822d9ccf8b47aec6816040518082815260200191505060405180910390a150505050565b60608060146040519080825280601f01601f191660200182016040528015610e9a5781602001600182028038833980820191505090505b50905060008090505b6014811015610f44578060130360080260020a8473ffffffffffffffffffffffffffffffffffffffff16811515610ed657fe5b047f0100000000000000000000000000000000000000000000000000000000000000028282815181101515610f0757fe5b9060200101907effffffffffffffffffffffffffffffffffffffffffffffffffffffffffffff1916908160001a9053508080600101915050610ea3565b5080915050919050565b6000600154905090565b6000600354905090565b60008060009054906101000a900473ffffffffffffffffffffffffffffffffffffffff16905090565b60008060606000610f9a611187565b60008090505b6002548110156110d6578160600151600560008381526020019081526020016000206003015411156110c9576005600082815260200190815260200160002060a060405190810160405290816000820154815260200160018201548152602001600282018054600181600116156101000203166002900480601f0160208091040260200160405190810160405280929190818152602001828054600181600116156101000203166002900480156110985780601f1061106d57610100808354040283529160200191611098565b820191906000526020600020905b81548152906001019060200180831161107b57829003601f168201915b50505050508152602001600382015481526020016004820160009054906101000a900460ff16151515158152505091505b8080600101915050610fa0565b50806000015181602001518260400151836060015181915094509450945094505090919293565b6000600254905090565b828054600181600116156101000203166002900490600052602060002090601f016020900481019282601f1061114857805160ff1916838001178555611176565b82800160010185558215611176579182015b8281111561117557825182559160200191906001019061115a565b5b50905061118391906111bf565b5090565b60a060405190810160405280600080191681526020016000801916815260200160608152602001600081526020016000151581525090565b6111e191905b808211156111dd5760008160009055506001016111c5565b5090565b9056fea165627a7a7230582054961620d34d8ee286c49fa5b86e2965f6748723277b43b4da0ffc4d34a1e8080029",
  "source": "pragma solidity >=0.4.24 <0.6.0;\r\n\r\ncontract Voting {\r\n\r\n    event AddedCandidate(uint candidateID);\r\n    \r\n    address owner;\r\n    \r\n    constructor() public {\r\n        \r\n        owner=msg.sender;\r\n        \r\n    }\r\n    \r\n        modifier onlyOwner {\r\n        require(msg.sender == owner);\r\n        _;\r\n    }\r\n    \r\n   \r\n    struct Candidate {\r\n\t\t\r\n        bytes32 name;\r\n        bytes32 party; \r\n\t\tstring img;\r\n         uint voteCount;\r\n        bool doesExist; \r\n    }\r\n\r\n    struct File{\r\n\t\tstring file;\r\n\t\tstring desc;\r\n\t\taddress acc;\r\n\t}\r\n\t\r\n\tuint numFiles;\r\n    uint numCandidates; \r\n    uint numVoters;\r\n\r\n    \r\n\tmapping(uint => File) files;\r\n\t\r\n    mapping (uint => Candidate) candidates;\r\n    \r\n    mapping(address => bool) voteAdd;\r\n\t\r\n\tfunction toString(address x) public returns (string memory)  {\r\n        bytes memory b = new bytes(20);\r\n        for (uint i = 0; i < 20; i++)\r\n            b[i] = byte(uint8(uint(x) / (2**(8*(19 - i)))));\r\n        return string(b);\r\n    }\r\n\r\n\tfunction addFile(string memory file,string memory desc) public {\r\n\t\tuint fileID = numFiles++;\r\n\t\tfiles[fileID] = File(file,desc,msg.sender);\r\n\t\t\r\n\t}\r\n\t\r\n    function addCandidate(bytes32 name, bytes32 party,string memory img) onlyOwner public {\r\n      \r\n        uint candidateID = numCandidates++;\r\n      \r\n        candidates[candidateID] = Candidate(name,party,img,0,true);\r\n        \r\n        emit AddedCandidate(candidateID);\r\n    }\r\n\r\n    function vote(uint candidateID) public {\r\n        require(!voteAdd[msg.sender]);\r\n        if (candidates[candidateID].doesExist == true) {\r\n             \r\n\t\t\tvoteAdd[msg.sender] = true;\r\n            candidates[candidateID].voteCount++;\r\n        }\r\n    }\r\n\t\r\n \t\r\n    \r\n\r\n\tfunction getWinner() public view returns(bytes32, bytes32,string memory,uint){\r\n\t \tCandidate memory max;\r\n\t\tfor(uint i=0;i<numCandidates;i++){\r\n\t\t\tif(candidates[i].voteCount>max.voteCount){\r\n\t\t\t\tmax=candidates[i];\r\n\t\t\t}\r\n\t\t}\r\n\t\treturn(max.name,max.party,max.img,max.voteCount);\r\n\t\t\r\n\t}\r\n   \r\n   \r\n    function getNumOfCandidates() public view returns(uint) {\r\n        return numCandidates;\r\n    }\r\n\r\n    function getNumOfVoters() public view returns(uint) {\r\n        return numVoters;\r\n    }\r\n\t\r\n\tfunction getNumOfFiles() public view returns(uint){\r\n\t\treturn numFiles;\r\n\t}\r\n    \r\n    // returns candidate information, including its ID, name, and party\r\n    \r\n    \r\n    function getCandidate(uint candidateID) public view returns (uint,bytes32, bytes32,string memory,uint) {\r\n        return (candidateID,candidates[candidateID].name,candidates[candidateID].party,candidates[candidateID].img,candidates[candidateID].voteCount);\r\n    }\r\n\t\r\n\tfunction getFile(uint FileID) public view returns (uint,string memory,string memory,address){\r\n\t\t\r\n\t\t\treturn (FileID,files[FileID].file,files[FileID].desc,files[FileID].acc);\r\n\t\t\r\n\t\t\r\n\t\t\r\n\t\t\r\n\t}\r\n\tfunction getOwner() public view returns(address){\r\n\t \treturn owner;\r\n\t}\r\n\t\r\n\tfunction hasVoted(address account) public view returns (bool){\r\n\t\treturn (voteAdd[account]);\r\n\t}\r\n}\r\n",
  "sourcePath": "D:/POC/true-vote/contracts/Voting.sol",
  "compiler": {
    "name": "solc",
    "version": "0.5.0+commit.1d4f565a.Emscripten.clang"
  },
  "schemaVersion": "3.0.1",
  "updatedAt": "2019-03-24T06:30:43.360Z",
  "devdoc": {
    "methods": {}
  },
  "userdoc": {
    "methods": {}
  }
}